:020000040800F2
:10000000F0090020350200083D4D00082944000891
:10001000394D0008251F00080552000800000000A7
:10002000000000000000000000000000E94F000890
:10003000291F000800000000414D0008ED4F000896
:100040004F0200084F0200084F0200084F0200084C
:100050004F0200084F0200084F0200084F0200083C
:100060004F0200084F0200084F0200084F0200082C
:100070004F0200084F0200084F0200084F0200081C
:100080004F0200084F0200084F0200084F0200080C
:100090004F0200084F0200084F0200084F020008FC
:1000A0004F020008F54F00084F0200084F020008F9
:1000B0004F0200084F0200084F0200084F020008DC
:1000C0004F0200084F0200084F0200084F020008CC
:1000D0004F020008ED510008F95100084F020008D6
:1000E0004F0200084F0200084F0200084F020008AC
:1000F0004F0200084F0200084F0200084F0200089C
:100100004F0200084F0200084F0200084F0200088B
:100110004F0200084F0200084F0200084F0200087B
:100120004F0200084F0200084F0200084F0200086B
:1001300000F002F800F06FF814A696E8000CB24444
:10014000B344DA4501D100F066F8BAE80F000FA613
:1001500096E83000A5EB040504EB0607AAEB0704BC
:10016000A7F101074FEA15154FEA3414A4F1010471
:10017000AC4201D300F04FF813F0010F18BFFB1A87
:1001800043F0010300F001F8DBE71847A479000011
:10019000C4790000103A24BF78C878C1FAD8520751
:1001A00024BF30C830C144BF04680C6070470000F1
:1001B000704700000023002400250026103A28BFC5
:1001C00078C1FBD8520728BF30C148BF0B607047C9
:1001D000662907F08D82642900F0DE80752900F021
:1001E000DB80782900F01481732900F04486002018
:1001F00070471FB501F016F904000020002106F039
:10020000E3FB401C60600020002106F0C7FBE060BB
:100210001FBD10B510BD01F0E3FB1146FFF7E9FF6C
:1002200005F048F901F034FE03B4FFF7F2FF03BC18
:1002300005F098F80948804709480047FEE7FEE7BF
:10024000FEE7FEE7FEE7FEE7FEE7FEE7FEE7FEE786
:1002500004480549054A064B70470000F14F000865
:1002600031010008F0030020F0090020F005002013
:10027000F00500200FB4044910B503AA029800F05D
:10028000FFFD10BC5DF814FBF00000200FB41CB59E
:10029000084B06AA7B4469460090059800F0B9FD1A
:1002A00004460020694600F0C7FD20461CBC5DF8EE
:1002B00014FB0000A10B00000FB41CB50C0007AA32
:1002C000009007D04142A14202D32044401E01E0E9
:1002D0004FF0FF30074B7B4469460190069800F0D1
:1002E00098FD0021002C01D0009A11701CBC5DF813
:1002F00014FB0000690B000070B5044685690068B6
:10030000C10601D5302600E02026C00707D070BD09
:10031000D4E9012130469047206A401C20626D1EBE
:10032000F6D570BD70B5044685690078C00707D161
:1003300070BDD4E9012120209047206A401C206232
:100340006D1EF6D570BD70B50C460546012A05D068
:100350002878800600D5EA69002302E0012305E041
:100360005B1C934202D2E05C0028F9D1A869E61830
:10037000C01AA861286A184428622846FFF7BCFF03
:1003800004E0D5E9012114F8010B9047B442F8D3F9
:100390002846FFF7C7FF70BD2DE9F041064600244F
:1003A00010687529314616A510D0AFF300800028DB
:1003B00002DA404213A507E031688A0701D512A589
:1003C00002E0490704D511A5012401E0AFF3008044
:1003D00000210A2206F1240709E0B0FBF2FCB0FB81
:1003E000F2F302FB1C00303078541846491C0028F8
:1003F000F3D123462A463046BDE8F04100F09DBACD
:10040000000000002D0000002B0000002000000074
:1004100070B504460D4621461068AFF30080218870
:10042000090502D50F4A7A4402E00E4A7A440E3298
:10043000002104F1240305E000F00F060009965D99
:100440005E54491C0028F7D120780023000704D50A
:10045000702D02D009B1022311322046BDE8704050
:1004600000F06BBAC67300002DE9F05F89460446C0
:100470004FF0000ADFF824B1FB44C0F820A020466A
:10048000E168884700287DD0252806D0D4E90121DD
:100490009047206A401C2062F1E700255F46204615
:1004A000E16888472028064607DB312E05D2B819B7
:1004B00010F8200C08B10543F1E7A80701D525F095
:1004C0000405C4F81CA00027C4F818A02A2E09D0DF
:1004D000304606F0D0F938B304EB8708303EC8F850
:1004E000186019E059F8041B204604EB870291615B
:1004F000E1688847012F064618D1E069002820DA14
:1005000025F020051DE0D8F8180000EB800006EB70
:1005100040003038C8F818002046E1688847064691
:1005200006F0A9F90028EED1012F0AD02E2E08D10D
:100530002046E16888477F1C0646022F45F02005CB
:10054000C4DBA069002803DA404245F00105A06140
:10055000E80701D025F01005A6B1A6F14100192841
:1005600002D8203645F400654A46314620462560CB
:100570004D46FFF72DFE60B1012807D0ED1D25F097
:10058000070000E007E000F1080978E705F1040939
:1005900075E730467AE7206ABDE8F09F9C7300005B
:1005A0000FB400B58DB010A9099000910B904FF0D9
:1005B000FF300A9000200C900648784406900648C8
:1005C00078446A4607900F9909A800F0FBFE0DB029
:1005D0005DF814FB270E00003F0E00002DE9FF5FC1
:1005E0001D464FF0FF3B91464FF000085F46D5E9AE
:1005F0000146A96901987F1C8847296A8246884775
:100600000028F6D1BAF1FF3F0CD0002E24F4C064CC
:1006100019DD600614D5BAF12B0F09D0BAF12D0FF0
:100620000ED103E0584604B0BDE8F09F44F4806466
:10063000A96901987F1C8847761E8246002E02DD3C
:10064000BAF1300F03D0B9F1000F26D032E0A9691A
:10065000761E01987F1C44F400748847002E824661
:1006600005DDBAF1780F06D0BAF1580F03D0B9F111
:10067000000F10D01EE0B9F1000F02D0B9F1100F39
:1006800018D1A969761E01987F1C24F4007488474C
:100690008246102002E0082000E00A20814609E09E
:1006A000A96908FB0908761E01987F1C44F40074B0
:1006B00088478246002E05DD4946504600F0F2FB91
:1006C0000028EDDAE96901988847A00502D46FF0A7
:1006D0000100A8E7E00725D1600613D5600502D523
:1006E000C8F1000000E0404629680A1D2A60096838
:1006F000220501D5087015E0220701D5088011E018
:1007000008600FE02868011D29600068210502D5F6
:1007100080F8008006E0210702D5A0F8008001E003
:10072000C0F8008038467EE710B5044603E004F0C8
:100730001BFE401C09D014F8010B05490028F6D116
:10074000BDE810400A2004F00FBE4FF0FF3010BD8E
:10075000F000002010B5431C02E010F8011B71B13D
:100760008107FAD14FF0013202C88C1A8C4314EA87
:10077000C211F9D0C01A0A0603D0C01E10BDC01A9B
:1007800010BD0A0401D0801E10BD0902FCD0401E1D
:1007900010BD40EA010370B59B072ED14FF0013622
:1007A000042A2AD308C810C99D1B9D43121F15EAAD
:1007B000C61517D0D8B2E1B2401A50EA056110D17F
:1007C00098B2A1B2401A50EA05410AD123F07F4005
:1007D00024F07F41401A50EA052102D1180EA0EB07
:1007E000146070BDA342DBD018BA21BA884201D987
:1007F000012070BD4FF0FF3070BD0AB9002070BD00
:1008000010F8013B11F8014B63B1A3420AD1521E0B
:1008100008D010F8013B11F8014B1BB1A34201D1E4
:10082000521EEDD1181B70BD10B5203AC0F00B80E0
:10083000B1E81850A0E81850B1E81850A0E81850D6
:10084000203ABFF4F5AF5FEA027C24BFB1E818504C
:10085000A0E8185044BF18C918C0BDE810405FEAAE
:10086000827C24BF51F8043B40F8043B08BF70472A
:10087000D20728BF31F8023B48BF11F8012B28BF2F
:1008800020F8023B48BF00F8012B70474FF00002F0
:100890000429C0F0128010F0030C00F01B80CCF192
:1008A000040CBCF1020F18BF00F8012BA8BF20F800
:1008B000022BA1EB0C0100F00DB85FEAC17C24BF54
:1008C00000F8012B00F8012B48BF00F8012B7047FE
:1008D0004FF0000200B5134694469646203922BFD9
:1008E000A0E80C50A0E80C50B1F12001BFF4F7AF24
:1008F000090728BFA0E80C5048BF0CC05DF804EB06
:10090000890028BF40F8042B08BF704748BF20F873
:10091000022B11F0804F18BF00F8012B7047704771
:100920007047704710B500F081FD006810BD10B52C
:10093000044600F07BFD046010BD2DE9F0470D4634
:1009400099469246044600F124080168880604D5B9
:10095000E06921F01001216000E00120A84201DDE2
:10096000471B00E00027A1697A1902EB0900081A69
:10097000A0612078C00602D42046FFF7BDFC002607
:1009800008E0D4E901211AF806009047206A401CCB
:10099000761C20624E45F4DB2078C0060AD520463E
:1009A000FFF7AAFC06E0D4E9012130209047206A35
:1009B000401C2062381EA7F10107F4DC07E0D4E9EF
:1009C000012118F805009047206A401C2062281E6B
:1009D000A5F10105F3DC2046FFF7A4FC2078000612
:1009E00002D50220BDE8F0870120FBE72DE9FF4F8B
:1009F0000C461E464FF0FF378BB0D2E90001DDF800
:100A000060800A908A46C1F30A5505B93D46002127
:100A100008464FF00000BAF1000F00F4400005DA7C
:100A200000EB80004FF4400101EA50004FEA90597A
:100A3000B9F1010F00DDB9460A9850EA4A000ED01C
:100A400044F61050A5F2FF3545432F14B8F1000FBE
:100A50001ED07542291E1EDDC9F100021CE0B8F14E
:100A6000010F4FF0000001D0302103E0F24305E018
:100A70002154401CB042FBDB3046002200212154AF
:100A80000B99C1F80880C1E900200FB0BDE8F08FD4
:100A9000BD1B6D1CDEE74A4600DA694206A800F07D
:100AA00025FF06AB93E8070003AB83E80700504639
:100AB0000A9905F016FA8DE80700A0F500501F38D6
:100AC00000900398002D0ADD42F21F014A460844B7
:100AD000002303A90390684605F0C2FC09E0A0F5D5
:100AE00000504A461F38002303A90390684605F0CA
:100AF000E1FC8DE807000004000C03D04FF0FF304C
:100B0000410800E01046B8F1000F03D00022009227
:100B100015461EE0751E05D400F09FFC303262556C
:100B20006D1EF9D5B3460122084302D000227F1C76
:100B300004E02078302801D100227F1E002A099786
:100B400084D01DE0112D07DA00F087FC30326255A9
:100B50006D1C50EA0102F5D1084302D00098C8B1DB
:100B60000EE00021681E05E0235C625C63542254A1
:100B7000401E491C8142F7DBAB46A81B401E099072
:100B8000002004F80B000B98099AC0F80880C0E90F
:100B9000002B7AE711264FF0000857E72DE9F04FB8
:100BA00088460446D21D22F0070191B0D1E9000128
:100BB000CDE90A0105F0CAFD02460B98C00F01D02D
:100BC0002D2007E02068810701D52B2002E020219D
:100BD00001EAC000032A099001D0072A05DB034679
:100BE0004146204600F088FC0BE12078800601D5C4
:100BF000E06900E00620B8F1650F814606D0B8F143
:100C0000660F18D0B8F1670F70D131E00020B9F14C
:100C1000110F009001DB112301E009F101030AAA81
:100C200001A90CA8FFF7E2FEDDE90C70002609F12E
:100C30000105834647E001204B4600904FF00047F6
:100C40000AAA01A90CA8FFF7D1FEDDE90DB00C99A5
:100C50005D46002610B909F101000D18B9EB050039
:100C600003D4C0F1FF3609F10105A5EB09002BE023
:100C7000B9F1010F01DA4FF001090020B9F1110FAC
:100C80000090484601DD112300E003460AAA01A9AD
:100C90000CA8FFF7ABFEDDE90C704D46002683463D
:100CA000207800070AD4AB4500DA5D4601A8012D83
:100CB00004DD411911F8011C302907D04F4502DA33
:100CC00017F1040F04DA012082460FE06D1EEEE7F3
:100CD000002F02DCED1B3E4403E0781CA84200DD3F
:100CE0007D1CB81B00F1010A4FF000472078000777
:100CF00003D4AA4501DB4FF0FF3A0021B7F1004FC2
:100D00000DF143088DF8431024D002202B23002F2F
:100D100001DA7F422D230A21021EA0F1010000DC2E
:100D20005FB197FBF1FC97FBF1F201FB1C7C1746CE
:100D30000CF1300C08F801CDEEE7A8F101000370CA
:100D40002188090501D5452100E06521A0F10108B0
:100D500000F8011C09980FA9A1EB0807FF1D00B1BD
:100D60000120411901EBEA70A1693844081A401EBC
:100D7000A0612078C00602D42046FFF7BDFA09988A
:100D800028B1D4E901219047206A401C20622078D4
:100D9000C00622D52046FFF7AFFA1EE0002E04DB86
:100DA000B34502DD01A8805D00E03020D4E90121D7
:100DB0009047206A401C2062761CAAF101005FEA7D
:100DC000000A0AD100F02EFBC0680168405CD4E93B
:100DD00001219047206A401C2062281EA5F10105D0
:100DE000DCDC07E0D4E9012118F8010B9047206A08
:100DF000401C2062381EA7F10107F3DC2046FFF7F4
:100E000091FA032011B041E601694A1C0261087899
:100E1000704700B58FB0CDE901310021059105493A
:100E20007944CDE9031011466846FFF71DFB0FB06A
:100E300000BD0000E5FFFFFF0A6802F8010B0A6031
:100E40007047D1E900239A4202D2531C0B60107004
:100E5000704710B5436913B1AFF3008001E0FFF7AD
:100E600072FA012010BD127800F124010A700022EC
:100E70004A700122EDE711684FF0FF32E9E7000008
:100E8000074B70B50D467B44FFF7C3FF0446284669
:100E900000F09EFD10B14FF0FF3070BD204670BDD8
:100EA000DF4400003A2800D2303820F02002412AE6
:100EB00001D3A2F13700884201D34FF0FF307047D1
:100EC0002DE9FF4F06468BB00878FF2806D0491C55
:100ED0002D2805D000244FF0000908E000200CE088
:100EE0000124F8E709EB8903491C00EB4309087862
:100EF000FF28F7D114B1C9F1000081461078002510
:100F00002C46AA4629462D2801D02B2804D1521C54
:100F10002D2813D0002082468B461078FF280FD052
:100F20004FF0000C0A21521CA5FB017804FB018143
:100F300005FB0C11C5194BEB0104EEE70120EAE7B4
:100F4000002108464FF00000BAF1000F02D000EB7C
:100F500080004008C0F38157012F01DD4FF0FF37BB
:100F60000E9955EA040009EB01080BD04FF0020975
:100F700018F5FA7F16DA4FEACA70002F706008DDA4
:100F8000012007E04FEACA70C6E900B00FB0BDE823
:100F9000F08F0020306000F049FAC0F8009018216E
:100FA000084616E0B8F5FA7F18DD002F02DAF74898
:100FB000784401E0F6487844D0E90010C6E9001012
:100FC00040EACA70706000F031FAC0F80090142155
:100FD00008460FB0BDE8F04F06F087BB0021084679
:100FE0004FF00000B8F10001099002DAC7F10002E9
:100FF00000E03A4601DAC8F1000106A800F076FCEC
:1010000006AB93E8070003AB83E8070044F23E0019
:101010005BEA04010090584604D144F21E012C46BC
:101020005D460091210C0904014306D10099240476
:1010300044EA15442D041039009104F07F41014326
:1010400006D10099240244EA15642D020839009162
:1010500004F07041014306D10099240144EA15745B
:101060002D01091F009104F04041014306D1009970
:10107000A40044EA9574AD00891E009104F000417B
:10108000084304D100986D196441401E00904FF050
:1010900001033A466846B8F1000FCDE9014503A9BE
:1010A00002DD05F01CFA01E005F0EFF9BAF1000FDE
:1010B00004460D4601D084F00044002108464FF05C
:1010C0000000099940F2FF77484010F00C0F07D15B
:1010D00024F00040284303D0C4F30A50B84212D190
:1010E00000F0A4F9C0F80090C4F30A50B8420AD145
:1010F000A8487844D0E90010C6E9001004F0004187
:101100000843706042E7C6E900543FE72DE9FF4F0E
:101110001F464FF0000A4FF0FF38454691B0D7E91F
:101120000146CDF83CA000F07DF9C0680168405C44
:101130001090B96912986D1C8847396A81468847B2
:101140000028F6D1B9F1FF3F0AD0002E24F4D06474
:1011500011DDB9F12B0F08D0B9F12D0F0BD102E041
:10116000404615B013E744F48064B96912986D1CC9
:101170008847761E8146600504A901D52D2000E030
:101180002B20002E01F1010B0DF130088DF810001D
:101190003FDDB9F1690F08D0B9F1490F05D0B9F1B8
:1011A0006E0F02D0B9F14E0F1CD13B4601A800953D
:1011B00080E85002DDE912126FF0020006F0FEFA3C
:1011C000C11CCED10EE0B96912986D1C88478146CA
:1011D0001398761E44F4007405600F98401C002E8E
:1011E0000F9016DDB9F1300FEDD0B9F1780F02D0C4
:1011F000B9F1580F0DD10F9801280AD13B46CDE91E
:101200000054DDE91212001F029606F0D5FAC11C47
:10121000A7D1109989453ED144F0800406E0139986
:10122000681CAAF1010A44F400740860B9696D1CD5
:101230001298761E884730288146F0D02BE010990E
:10124000894505D1200603D4761E44F0800418E0B9
:10125000484605F010FB08B3761E0DF123029345B6
:10126000A9F1300044F4007406D20BF8010B2006FB
:1012700007D5AAF1010003E0200602D40AF101001B
:101280008246A00502D51399681C0860B9691298B6
:101290006D1C88478146002ED1DC53E0002E51DDC5
:1012A000B9F1650F02D0B9F1450F4BD1A00549D571
:1012B000B9696D1C1298761E24F440748847002E7C
:1012C00081460CDD2B2804D0B9F12D0F07D144F451
:1012D0008074B96912986D1C8847761E8146E005B6
:1012E00001D52D2100E02B2108F8011BCDF800804D
:1012F00021E0761E0DF13901884544F400740CD2CA
:10130000A9F1300010F0FF0088F8000002D1009928
:10131000884509D908F1010806E0E00501D51E4815
:1013200001E042F20F708246B96912986D1C88473D
:10133000814613980560002E04DD484605F09BFAAF
:101340000028D6D1F96912988847FF2053468BF8B8
:10135000000088F8000000200A900B9004AA0CA955
:101360000AA8FFF7ADFDA00502D46FF00100F8E672
:1013700014F0240F12D0E0071CD13868DDE90A12FE
:10138000031D3B600068C0E9001213E0A46B00007D
:10139000966B00005A6A0000F1D8FFFF0AA9684660
:1013A00005F0F8F9E00705D13868009A011D3960A9
:1013B000006802602846D4E6026811441378016090
:1013C00018467047D1600549794451610449794410
:1013D000116200211161114600F0CEB8EDFFFFFF50
:1013E00013010000426842B1016811F8013B23B1CA
:1013F000521EC0E90012184670470121C160881EC4
:10140000704742685AB1C368016843B983688B4228
:1014100005D0491E521CC0E90012002070474FF051
:10142000FF30704700487047400000200048704778
:1014300020000020B2F120030AD5C2F1200301FAF6
:1014400002F120FA03F341EA030100FA02F07047C7
:1014500000FA03F14FF00000704730B5B0F10A0216
:1014600071F100034FEA900E4EEA817EB0EB0E0060
:1014700061EB91014FEA101E4EEA017E10EB0E0067
:1014800041EB11114FEA102E4EEA016E10EB0E00E7
:1014900041EB11214FEA104E4EEA014E10EB0E00C7
:1014A00041EB1141401841F100014FEAD00040EA00
:1014B00041704FEAD1014FEA810444EA907410EB85
:1014C000800544EB01046D1944EB0404521BA34155
:1014D0004FF0000348BF0A3200D530BD401C41F137
:1014E000000130BD10B5044600F0A0FA0068005DB0
:1014F00000F0010010BD00002DE9F0411F46044638
:1015000003260168072A01F4006004DB08B116A570
:1015100005E016A503E008B115A500E015A521F02A
:1015200010002060A069C01EA0610FB1401EA06124
:101530002046FEF7E1FE4FB1D4E90121384690473D
:10154000206A401C2062C01C206206E0206AFAE784
:10155000D4E9012115F8010B9047761EF8D22046F8
:10156000FEF7E0FEBDE8F0814E414E006E616E0078
:10157000494E4600696E66002DE9F34F4FF0000AB0
:101580000C4656468DB001200C9001F10C000B90DA
:1015900062690B9801219047051E2DD0252D2CD076
:1015A000216A8847C0B162690B9801219047216A7E
:1015B00088470028F7D16269411E0B98904700E0E8
:1015C000761CA1690D988847216A88470028F7D1C1
:1015D000E1690D988847DBE7A1690D988847A84223
:1015E000074601D1761CD3E7E1690D9888477F1C37
:1015F00002D1BAF1000F6FD06BE162690B9800273E
:101600003D46394690472A2804D162690B9801214A
:1016100090470125DFF8D08262690B98012190473D
:10162000A0F130010A290AD24745E5DC07EB870122
:1016300000EB4107303FDFD445F01005ECE7E90649
:1016400001D46FF000476C280AD04C2814D06828C9
:1016500015D06A280DD074281CD07A281AD01DE025
:1016600062690B98012190476C2802D045F004056F
:1016700014E045F002050DE045F020050AE062693E
:101680000B9801219047682802D045F0080505E035
:1016900045F4006562690B9801219047C4E9015740
:1016A00065283DD019DC58287AD00CDC452837D085
:1016B00004DC252826D041289ED131E046282FD0B1
:1016C000472899D12CE05B2877D0612828D063285F
:1016D0007CD0642823D15AE0F6E06F2848D008DC9B
:1016E00066281DD067281BD0692821D06E2816D106
:1016F00027E0702845D0732868D0752847D078280F
:101700000DD14DE0A1690D988847252805463FF485
:1017100069AFE1690D9888476D1C3FF46AAFD8E066
:101720000D9923466A466FF0010006F043F8C5E0C4
:1017300045F0400023464FF000026060A80736D411
:101740003EE0E8077FF447AF2068011D2160006894
:10175000290501D506701BE7290701D5068017E783
:10176000A90703D5F117C0E9006111E706600FE78B
:1017700045F0400023464FF008026060A80716D4E9
:101780001EE040F60E0125EA0100606016E045F01B
:10179000400023464FF00A026060A80707D40FE01C
:1017A00045F040006060A80708D5234610220D9937
:1017B0006FF00100AFF3008080E007E010222346C5
:1017C0000D996FF00100FEF709FF77E04FF0000977
:1017D00063284F46C8464B46CB4602D05B2806D00E
:1017E00038E0E80601D40120A060012732E06269F8
:1017F000D4F80CB00B98012190475E2807D14FF028
:10180000010949466269D4F80CB00B9890472169E8
:1018100039B900210A4603AB43F82120491C0829A5
:10182000FADBD8B3216949B308F1010862690B9862
:10183000012190475D28F4D1B9F1000F09D00020B3
:1018400003A951F82020D24341F82020401C082849
:10185000F7DB03AB2069002820794FEA40701ED0E7
:101860005B462246CDF80080CDE901970D9900280E
:101870006FF0010020DAAFF300801FE0C11703AA68
:1018800000EBD1614B1121F01F0102EB8302411AE1
:1018900013680120884003431360C7E719E00D99DE
:1018A000224600286FF00100009702DAAFF30080B3
:1018B00004E0AFF3008001E0AFF3008000280ADA13
:1018C000401C06D10C9820B14FF0FF300FB0BDE89E
:1018D000F08F5046FAE7E90701D10AF1010A064400
:1018E00000200C9054E60000CCCCCC0C2DE9F04745
:1018F000814616468AB0354878440DC88DE80D00FB
:1019000032487844801C03AC0DC884E80D0041F6D1
:101910009B300844372190FBF1F290FBF1F5A5F1E3
:10192000800501FB12041B3C02D56442012000E04B
:101930000020DFF898A080460027FA44AAF1BE0AEA
:101940000EE0E0070AD03246684607EB4701012364
:101950000AEB810104F0AEFD8DE8070064107F1CE6
:10196000002CEED1194F7F44AE3F19E0E80715D0A7
:1019700007EB04100DF1180A90E80E008AE80E003B
:10198000C068F04201D1981908903246012306A997
:1019900003A804F08FFD03AB83E807006D10641CFF
:1019A000002DE3D14FF0010332466946B8F1000F34
:1019B00003A802D004F054FD01E004F07BFDC9E966
:1019C0000001C9F808200AB0BDE8F087AC5F00004C
:1019D000007B00F080007047004870472000002026
:1019E0007546FFF7F9FFAE4605006946534620F0FD
:1019F0000700854618B020B5FEF72AFCBDE8204058
:101A00004FF000064FF000074FF000084FF0000BBA
:101A1000AC46ACE8C009ACE8C009ACE8C009ACE829
:101A2000C00921F007018D467047000010B5FFF78F
:101A3000F9FC001D10BD00BF914F00002DE9FF4FC4
:101A40001F464FF03C0987B04FF00042DDE914100B
:101A500001F10108DDF858A002EA4050039000208F
:101A600005908346054604460490B969461E0898C9
:101A70008847AAF1010A0290BAF1000F3BDD0298F3
:101A80002E2815D01021FFF70DFA00282EDB4FF07D
:101A9000010B0599014317D0B9F1000F0BDB4A4642
:101AA000C117FFF7C7FC05430C43A9F1040905E082
:101AB000012004900BE008B145F0010501200590DC
:101AC000049820B9361D02E0049800B1361FB969A8
:101AD000089808F101088847BBF1000FAAF1010A34
:101AE0000290C9D00999C1F80080C5E70298702812
:101AF00008D0502806D0F96908988847BBF1000F34
:101B000014D04FE0002002900120BBF1000F0490A0
:101B100009D0B969089808F101088847AAF10109B4
:101B2000B9F1000F07DCF969089888476FF00100E8
:101B30000BB0BDE8F08F2B2804D02D280CD14FF02E
:101B4000FF300490B969089808F101088847A9F1A5
:101B50000109B9F1000FE6DD411CE4D00A21FFF7CD
:101B6000A1F90028DFDB029908F1010801EB8101EE
:101B700000EB41000290B969089888470A21FFF7F5
:101B800091F9099AA9F10109B9F1000FC2F8008091
:101B900001DD0028E7DAF969089888470499029876
:101BA00000FB016655EA040004D004F0404109003E
:101BB00002D006E0039898E0A40044EA9574AD00D2
:101BC000B61E04F00041080002D16D196441761E72
:101BD000159810F0240F03D04FF00B095C4803E078
:101BE0004FF028096FF07D008246564507DAAAEBD0
:101BF00006018944B9F1410F01DD4FF0410901208F
:101C00000021A9F10102FFF715FC024628400B460E
:101C10002140084301D0012100E00021501E029123
:101C200043F1FF3128402140084301D0012000E06A
:101C300000200299834651EA0B014FD0002108464B
:101C40004FF00000039900F4400039B100EB800030
:101C50004FF4400100EBD07001EA600080150128CC
:101C600002DD4FF0FF3000E013D0401C36D0029868
:101C700060B3BBF1000F0CD14A4601200021FFF7F1
:101C8000D9FB28402140084301D0012000E000207A
:101C9000E0B101204A460021FFF7CCFB0346401982
:101CA0000A4661412D1A8C4111D3B9F1400F09DD6B
:101CB000159810F0240F02D0AAF1340603E0AAF11F
:101CC000170600E0761C00254FF0004406E05B1E7E
:101CD00042F1FF3220EA030521EA0204CAF10100C1
:101CE000B04206DA1B490398084301900020009097
:101CF0000EE0039AC4F3D321E80A0A43164940EAE6
:101D000044500A433146CDE90002684604F0A8FD7C
:101D1000159810F0240F0BD01598C00715D138680E
:101D2000DDE90012031D3B600068C0E900120CE011
:101D300002A8694604F02EFD1598C00705D1386841
:101D4000029A011D3960006802604046F0E600001A
:101D500002FCFFFF0000F07F0000F03F2DE9FF4F85
:101D600092461D4685B04FF00041DDE9124BDDE99A
:101D700014727F1E01EA4B50414940F0FF4940EA8E
:101D80000108002122F020004928049102D04E28A9
:101D900028D04CE03BA0012607C88DE80700A969C0
:101DA0000698641C88477F1E014606D41DF806006D
:101DB00018B121F0200181420BD0E96906988847CB
:101DC000032E34D0082E32D06FF0010009B0BDE8E8
:101DD000F08F761C032E01D0082EE0D1601CCAF8CB
:101DE0000000DCE7A9690698641C88477F1E2AD496
:101DF00020F02000412826D1A9690698641C884754
:101E00007F1E20D420F020004E281CD1A9690698FE
:101E1000641C88477F1E48F4002849F48009CAF8EA
:101E2000004001D4282806D0E969069888475FEA6F
:101E3000CB7012D022E0A9690698641C88477F1EE7
:101E400001D4002803DAE96906988847BCE7292805
:101E5000F1D1641CCAF80040E9E71BF0240F07D059
:101E600028680499031D2B600068C0E9001805E08C
:101E70002868021D2A600068C0F800902046A5E787
:101E80000000F07F494E46494E4954590000000079
:101E900010B50446AFF300802046BDE81040FEF7C1
:101EA000C3B900004FF0013C50F8042B51F8043B3B
:101EB0009A4221D1A2EB0C03934313EACC1317D11E
:101EC00050F8042B51F8043B9A4215D1A2EB0C03B5
:101ED000934313EACC130BD150F8042B51F8043B75
:101EE0009A4209D1A2EB0C03934313EACC13DBD043
:101EF0004FF00000704700BFD01A01BAB1FA81F16B
:101F000001F0180122FA01F0CB40DBB2C0B2C01AD6
:101F1000C1F120012CFA01F3D11A914311EAC31146
:101F2000E6D17047FEE7000070470000EFF3108035
:101F300072B600BFFEE70000014690F821000228BB
:101F400016D10868D1E90FC3026822F00E020260C0
:101F5000026822F001020260012000FA03F2CCF8CC
:101F6000042081F821000020002281F82020704701
:101F7000042088630120002281F82020704700009F
:101F800090F82110022927D1026840F2040C13684E
:101F9000C4F2020C23F00E03136013680CF17C01F1
:101FA0008A4223F0010111601AD940F20841C4F2BB
:101FB00002018A4250D040F21C41C4F202018A421E
:101FC00042D040F23041C4F202018A4248D14FF47B
:101FD0008073CCF800345CE00421816301207047F9
:101FE0004321C4F202018A420EDD6B21C4F20201D8
:101FF0008A421BDC4421C4F202018A423ED05821AD
:10200000C4F202018A4223E00821C4F202018A429A
:1020100032D01C21C4F202018A4237D03021C4F2EE
:1020200002018A4214D14FF4807230E06C21C4F274
:1020300002018A4226D08021C4F202018A4207D1DD
:102040004FF0807223E000BF1023CCF8003420E072
:102050004FF480321BE000BF0123CCF8003418E0BD
:102060000CF588614FF480338A4208BF4FF48053E7
:10207000CCF800340DE000BF012208E04FF480529C
:1020800005E000BF4FF4801201E000BF1022CCF841
:102090000020012180F82110416B0022002980F8E6
:1020A000202004BF0020704780B58847002080BDF5
:1020B000B0B5044600F018F9054640F20800C2F237
:1020C00000000078611C18BF044400BF00F00CF948
:1020D000401BA042FAD3B0BD2DE9F04F82B00E688C
:1020E000002E00F0E980A0F1804241F6004540F268
:1020F0000043A2F58432C4F201050624C4F20103B0
:102100004FEAB227A84208BF05244FF0000E4FF057
:1021100001080F254FF0000A4FF0000B052F38BFC4
:102120004FEAB224009408E00E680AF1010A36FA78
:102130000AF20EF1040E00F0BF8008FA0AFC16EA5B
:102140000C09F1D04E684FF6FF72C1F210029642B0
:1021500012DC122E56D8DFE806F0350B4D495555E6
:10216000555555555555555555555545510000BF73
:10217000D1F80CB046E000BF4FF6FF72C1F2210269
:1021800096420FDC0022C1F2110296421AD00022C0
:10219000C1F21202964215D00022C1F221029642EB
:1021A00010D02FE00022C1F2220296420AD0002273
:1021B000C1F23102964205D00022C1F232029642AB
:1021C00020D100BF8A684AB1012A14BFC0F814C0E8
:1021D000C0F810C04FF0080B14E000BF4FF0040B24
:1021E00010E000BFCA6802F1040B0BE04FF0000BD7
:1021F00008E000BFCA6802F1080B03E0CA6802F1F8
:102200000C0B00BF02467446B9F5807F24BF043230
:10221000203C166805FA04F726EA07070BFA04F6CD
:1022200037431760CA79D2067FF57EAF41F21807AF
:10223000C4F202073A684FF6084542F001023A60DC
:102240003A68CFF6FF7502F001020192019A2AF076
:1022500003021A440F2457590EF00C06B440A7434A
:10226000009C04FA06F6374357514E6840F20C447E
:10227000F2029A6854BF22EA090242EA0902C4F251
:1022800001049A602268B70254BF22EA090242EAB6
:10229000090222605A68B70354BF22EA090242EADF
:1022A00009025A600F251A68F70354BF22EA09028F
:1022B00042EA09021A6037E702B0BDE8F08F000079
:1022C0008068084018BF012070470000C26802EA19
:1022D0000103914341EA034101617047002A08BFAD
:1022E000090401617047000040F2E830C2F20000CA
:1022F00000687047002804BF01207047F0B581B026
:10230000044690F83D0028B9002084F83C0020469F
:1023100000F0F8FA242084F83D002068016821F0DC
:1023200001010160016841F400410160016821F48C
:102330000041016000F002FD636848F2A16CC0F248
:10234000010C40F60011C0F23D0163453CBF48F26C
:102350008041C0F21E01884202D2012001B0F0BDCE
:102360004DF68361C4F21B31A0FB01122168970C6A
:10237000D1F804E04FF496762EF03F0545EA9245F9
:102380004D60774348F638160D6AC0F24106A7FB48
:10239000067625F03F07634538BF960C721C3A431A
:1023A0000A62CA6948F2A0664CF6FF77C0F20106DD
:1023B000B34222EA07020BD801385B00B0FBF3F00E
:1023C00001306FF31F30042898BF04201BE000BFCA
:1023D000A768013857B119277B43B0FBF3F00130F0
:1023E0006FF31F3070B100F5804007E003EB43034B
:1023F000B0FBF3F001306FF31F3018B100F500406F
:1024000001E000BF01201043C8610868D4E9072338
:1024100020F0C000104318430860886848F2FF327B
:1024200004F10C0790438CCF18431043A6698860D1
:10243000C86820F0FF0038433043C860086840F0A7
:102440000100086000202021206484F83D102063F2
:1024500084F83E0001B0F0BD2DE9F04F85B0044690
:102460000020994616460F460490FFF73DFF94F86A
:102470003D10202927D10546206800BF81698907C2
:102480001CD5FFF731FF411B20681A29F6D381695B
:102490008907F3D500202021206384F83D1084F8BB
:1024A0003E00206C04F13C0A40F020002064022031
:1024B00000218AF8001005B0BDE8F08FA2461AF896
:1024C0003C1F012904D1022005B0BDE8F08F00BFF8
:1024D00001228AF800200368DDE90F180E9ADB0755
:1024E00003D1036843F001030360036823F400632E
:1024F0000360222084F83D00402084F83E00002044
:10250000206462626185608D394620850020CFF6A7
:10251000FF70E062204632464B46CDE9008501F06F
:1025200085FF18B1012005B0BDE8F08F208D02288D
:1025300026D001280ED0002838D100200390206832
:1025400041690391816903910399016841F4007124
:10255000016037E02068016821F480610160EFF3D9
:10256000108072B600200390206841690391816950
:1025700003910399016841F40071016062B621E0A2
:102580002068016841F400610160EFF3108072B6C9
:1025900000200390206841690391816903910399A8
:1025A000016821F48061016062B60BE02068016877
:1025B00041F48061016000210391416903918069C8
:1025C00003900398208D002800F0CE80042740F26D
:1025D00018094BF2895BC0F20107C2F20009C1F28F
:1025E000F84B23260EE000BF10690870606A218D49
:1025F00001306062481E2085618D013961850104CA
:1026000000F0B28080B203280CD802282CD0012818
:102610004AD1204641462A4602F0A6F9002800F099
:102620009F807FE7204641462A4602F09DF9002818
:102630007FF478AF2068616A00690870606A226878
:10264000411C208D616201382085638D013B6385CB
:1026500053695B07D3D580B20328C5D1106820F435
:1026600080601060C0E700BF204639460022434624
:10267000009502F027F800287FF454AFEFF31080A4
:1026800072B62068616A026842F4007202600069F2
:102690000870606A218D01306062481E2085608D5F
:1026A0000138608562B65BE0204639460022434629
:1026B000009502F007F800287FF434AF2068016825
:1026C00021F480610160EFF3108072B62068616AC6
:1026D00000690870606A218D0130013960622185CE
:1026E000618D01396185D9F80010C908A1FB0B1271
:1026F000110A714304910499013904910499002944
:102700003ED021684A6952071AD4049901390491CC
:102710000499A9B321684A69520711D4049901396F
:102720000491049961B321684A69520708D4049955
:1027300001390491049919B321684A695207DAD51D
:102740000A6842F400720A6009690170606A218DAA
:1027500001306062481E2085608D0138608562B658
:102760002068616A006940E7202084F83D0000206D
:1027700084F83E0000218AF8001005B0BDE8F08F13
:1027800000202021206384F83D1084F83E00206C56
:1027900040F02000206462B6012000218AF8001079
:1027A00005B0BDE8F08F00002DE9F04383B09946F5
:1027B00016460F460446FFF797FD94F83D10202972
:1027C00024D10546206800BF816989071AD5FFF723
:1027D0008BFD411B20681A29F6D381698907F3D53F
:1027E00000202021206384F83D1084F83E00216CF5
:1027F00041F02001216484F83C00022003B0BDE8D0
:10280000F08300BF94F83C10012903D1022003B0EB
:10281000BDE8F083012284F83C200368DDE90B1851
:102820000A9ADB0703D1036843F0010303600368DE
:1028300023F400630360212084F83D00402084F8E5
:102840003E000020206462626185608D39462085EB
:102850000020CFF6FF70E062204632464B46CDE9BD
:10286000008501F06DFE18B1012003B0BDE8F083D2
:10287000208D98B9204641462A4601F0C5FE88B30E
:10288000206C0428F0D12068016841F400710160D7
:10289000012003B0BDE8F0830004EBD020464146A0
:1028A0002A4602F0A9F80028EAD1616A226808469F
:1028B00010F8013B1361238D6062581E2085678DDF
:1028C000013F678557697F07E6D50704E4D048785C
:1028D0001061881C6062981E2085618D01396185B8
:1028E000DAE700BF2068016841F400710160202030
:1028F00084F83D00002084F83E0084F83C0003B0DA
:10290000BDE8F08310B586B0016845F20040C4F21E
:10291000000081424FF00001CDE90411CDE9021120
:1029200002D006B010BD00BF41F21804C4F2020488
:10293000216800F5384041F008012160216801F06C
:10294000080101910199C0210291122103910321F3
:10295000059102A9FFF7C0FB606840F400106060B9
:10296000606800F400100190019806B010BD0000EE
:1029700040F2080040F2E831C2F20000C2F2000169
:1029800000780A68104408607047000080B542F281
:102990000000C4F20200016841F010010160032050
:1029A00000F0BCF80F2000F005F800F057F8002008
:1029B00080BD0000B0B586B041F21801C4F202013A
:1029C0000A68054642F400620A60096801A801F439
:1029D000006101910199694600F08EF900F0C2F999
:1029E0004DF68361C4F21B31A0FB01014FF0FF30B3
:1029F00000EB914140F2482042F60042C2F2000052
:102A0000C4F2010240F2E7330024C0E90021C0E92A
:102A100002430461846100F0E1FE08B106B0B0BD7C
:102A200040F24820C2F2000000F008FF0028F5D173
:102A3000192000F035F80F2D0CD819202946002256
:102A400000F040F840F20C010020C2F200010D60DD
:102A500006B0B0BD012006B0B0BD000082B041F2AA
:102A60001800C4F202000168022241F00101016075
:102A7000016801F0010101910199416841F0805123
:102A80004160406800F08050009000980420C4F23B
:102A90000100016862F31A61016002B07047000032
:102AA000002848BF704700F01F01012202FA01F11F
:102AB0001C2202EAD0004EF20012CEF20002815037
:102AC0007047000010B54EF60C5CCEF2000CDCF83E
:102AD0000030C3F3022E8EF00704042C28BF042418
:102AE000BEF103034FF0FF3E0EFA04F438BF00239B
:102AF000A14399400EFA03F39A43114300F00F02E9
:102B000000F160430901043A03F56443624400287C
:102B100048BF02F10C03197010BD00004EF60C51B5
:102B2000CEF200010A684FF6FF031A4060F30A2252
:102B300042F0806040F0FD7008607047002804BFDC
:102B4000012070472DE9F04381B042F20008C4F241
:102B500002080446D8F800000D4600F0070088423D
:102B60000CD2D8F8000020F007002843C8F8000075
:102B7000D8F8000000F00700A8426CD1206841F2AC
:102B800004098107C4F2020917D5410705D5D9F810
:102B9000001041F4E061C9F80010010705D5D9F82B
:102BA000001041F46051C9F80010D9F80010A26873
:102BB00021F0F0011143C9F80010C00742D1D8F844
:102BC000000000F00700A8420CD9D8F8000020F05F
:102BD00007002843C8F80000D8F8000000F00700FC
:102BE000A84238D12068410707D5D9F80010E2681B
:102BF00021F4E0611143C9F80010000708D5D9F8A5
:102C00000000216920F4605040EAC100C9F80000CA
:102C1000D9F8002002F00C00082841F20020C0F290
:102C20007A004DD147F6DA03C2F38341C0F60003C0
:102C3000595CD20338D440F60010C0F23D0048433E
:102C40003EE000BF606859F8041C022808D0012843
:102C500026D1890306D4012001B0BDE8F08300BF6E
:102C60008901F8D5D9F8001021F003010843C9F80B
:102C70000000FFF739FB064641F28837D9F800001B
:102C8000616800F00C00B0EB810F98D0FFF72CFBCF
:102C9000801BB842F2D9032001B0BDE8F08300BF29
:102CA0008907D8D5DEE700BFD9F8002047F6D8035A
:102CB000C2F34042C0F600039A5C4843B0FBF2F016
:102CC000D9F8001047F6C002C1F30311C0F60002A4
:102CD000515C40F2180220FA01F140F20C00C2F2FD
:102CE00000000068C2F200021160FFF763FE0020DE
:102CF00001B0BDE8F08300000F22026041F204023F
:102D0000C4F20202136803F003034360136803F084
:102D1000F0038360136803F4E063C36012684FF448
:102D2000E06303EAD202026142F20000C4F2020050
:102D3000006800F0070008607047000040F21800CB
:102D400041F20401C2F20000C4F202010068096805
:102D500047F6D002C1F30221C0F60002515CC84020
:102D60007047000040F2180041F20401C2F2000076
:102D7000C4F202010068096847F6D002C1F3C2211B
:102D8000C0F60002515CC84070470000002804BF34
:102D9000012070472DE9F04182B00446007841F2ED
:102DA0000006C007C4F202060CD0706800F00C00E8
:102DB000042840F081803068800303D560680028D3
:102DC00000F04681207880071BD5706810F00C0F4A
:102DD00009D0706800F00C00082840F08780706807
:102DE000C00300F183803068800703D52069012883
:102DF00040F02E813068616920F0F80040EAC1009F
:102E000030602078000713D4207840072CD4E5697F
:102E1000002D00F01881706800F00C00082840F0C8
:102E2000A780012D40F00481012002B0BDE8F081AF
:102E3000A069002800F084800020C4F24220012113
:102E4000C0F88014FFF750FA054600BF706A80078B
:102E500000F1B280FFF748FA401B0228F6D90320A0
:102E600002B0BDE8F08100BFF0695FEAC00808D495
:102E7000F06940F08050F061F06900F080500090FF
:102E8000009847F20007C4F200073868C00549D42B
:102E9000386840F480703860FFF726FA054600BFB6
:102EA0003868C0053ED4FFF71FFA401B6428F7D9E5
:102EB000032002B0BDE8F081706800F00C00082823
:102EC00003D17068C0033FF576AF616830680029B0
:102ED00000F00C81B1F5A02F00F00081B1F5803F2A
:102EE00040F01A8140F480301CE100BF20690028C6
:102EF00040F20000C4F2422000F08880012101600D
:102F0000FFF7F2F9054600BF306880073FF572AF62
:102F1000FFF7EAF9401B0228F6D9032002B0BDE80A
:102F2000F08100BFE168306A002900F09D8005292A
:102F300000F09280012940F0AF8040F00100B1E044
:102F40000020C4F242200021C0F88014FFF7CCF921
:102F5000054600BF706A80077FF556AFFFF7C4F9DA
:102F6000401B0228F6D9032002B0BDE8F08100BF63
:102F70000027C4F2422700203866FFF7B5F9022D7A
:102F800005460DD13068800140F1DE80FFF7ACF9D5
:102F9000401B02284FF00300F4D902B0BDE8F081D5
:102FA000306880014FD5FFF79FF9401B02284FF092
:102FB0000300F5D9F1E700BF40F21800C2F20000AB
:102FC000006844F6D351C1F26201A0FB0101480A36
:102FD000019000BF00BF0198411E002801913FF4FD
:102FE00013AF00BF0198411E002801913FF40CAFC0
:102FF00000BF0198411E002801913FF405AF00BFBA
:103000000198411E00280191E4D1FDE600210160F4
:10301000FFF76AF9054600BF306880077FF5F1AE1B
:10302000FFF762F9401B02284FF00300F4D9B4E720
:103030007068216A00F480328A4209D1616A00F422
:103040007010884204D1002002B0BDE8F08100BFBA
:10305000012002B0BDE8F08140F004003062306A27
:1030600040F001001EE000BF20F001003062306A35
:1030700020F004003062FFF737F9054641F2883747
:10308000306A800720D5FFF72FF9401BB8424FF078
:103090000300F5D981E700BF20F001003062306AFB
:1030A00020F004003062FFF71FF9054641F288372F
:1030B000306A800708D4FFF717F9401BB842F7D9E8
:1030C000032002B0BDE8F081B8F1000F3FF59FAEDC
:1030D000F06920F08050F06199E600BF40F4802054
:1030E0003060306840F480301CE000BF20F4803055
:1030F0003060306820F480203060FFF7F5F8054636
:10310000306880037FF55EAEFFF7EEF8401B642861
:103110004FF00300F4D940E720F48030306030688D
:1031200020F480203060FFF7DFF805463068800328
:103130003FF548AEFFF7D8F8401B6428F6D90320C6
:1031400002B0BDE8F08100BF206AB0F5803F05D134
:103150007168A26821F40031114371607168626A7C
:1031600021F4741111430843706001203866FFF7A1
:10317000BBF80446306880013FF565AFFFF7B4F84F
:10318000001B02284FF00300F4D906E770B528B100
:10319000416A29B100210161142106E0012070BDBE
:1031A0004168B1F5827F02D01C21002242500026E6
:1031B000866290F8511029B980F85060054600F0F9
:1031C00039F82846022180F8511090E82E0002F4C8
:1031D00082720C6803F4044324F040040C601A4427
:1031E00005F4006305691A4405F0020345691A44B1
:1031F00005F001038569C4691A4405F400731A4493
:1032000004F03803046A1A4404F08003846A1A4301
:1032100004F400531A430A60042202EA15424A6089
:10322000CA6922F40062CA610121466580F8511022
:10323000304670BD70B586B0006843F60001C4F238
:10324000000188424FF00001CDE90411CDE90211DF
:1032500024D043F20001C4F20101884250D141F26E
:103260001800C4F20200016840F6000441F48051E5
:1032700001600168402601F48051019101990168C3
:10328000C4F2010441F004010160006800F0040090
:1032900001900198A020029021E000BF41F21800A7
:1032A000C4F2020041684FF4804641F4804141601D
:1032B000416801F4804101910199016841F00801E0
:1032C0000160006800F00800019001984FF4204070
:1032D000029040F60000C4F2010000F58064022074
:1032E0000390032002AD059020462946FEF7F4FE28
:1032F0000020CDE90300204629460296FEF7ECFEA9
:1033000006B070BD2DE9F04182B01D4616460F464D
:103310000446FEF7E9FF94F8511001290ED18046CA
:10332000002F4FF0010018BF002E03D102B0BDE8FE
:10333000F08100BF94F85000012803D1022002B0B0
:10334000BDE8F081012084F850000320002184F8BA
:10335000510061652763A686E686A163A187E187A0
:10336000A0682164B0F5004F2068616407D101684E
:1033700021F040010160016841F480410160016871
:10338000490603D4016841F0400101606168731E81
:10339000E268B1FA81F1B3FA83F349095B09B2F546
:1033A000006F41EA030139D131B137F8021BC16026
:1033B0002763E08E0138E086E08E002870D0681C1C
:1033C0000BD11AE0216B31F8022BC2602163E08E31
:1033D0000138E086E08E002862D020688168890785
:1033E000F0D4FEF781FFA0EB0800A842F2D338E04A
:1033F000FEF77AFFE08E002852D0206881688907A6
:10340000F6D5216B31F8022BC2602163E08E0138C2
:10341000E086E08E0028F0D142E000BF39B1397873
:103420000173206B01302063E08E0138E086E08E6E
:10343000B0B3681C0BD123E0216B09780173206BBA
:1034400001302063E08E0138E086E08E40B32068D2
:1034500081688907F0D4FEF747FFA0EB0800A84277
:10346000F3D3012084F85100002084F85000032099
:1034700002B0BDE8F08100BFFEF736FFE08E78B104
:10348000206881688907F7D5216B09780173206B63
:1034900001302063E08E0138E086E08E0028EFD115
:1034A0002046022101222B46CDF8008001F00CFDC0
:1034B00040B92046802100222B46CDF8008001F043
:1034C00003FD28B1606D40F020006065202060653C
:1034D000A06838B9002001902068C1680191806817
:1034E00001900198012084F85100002084F85000D8
:1034F000606D002818BF012002B0BDE8F081000017
:103500002DE9F04383B01E4615460F460446FEF7EC
:10351000EBFE94F851108146012909D1002F4FF09C
:10352000010018BF002D0FD103B0BDE8F08300BF2C
:103530006068B0F5827F0DD104294FF00200F3D10D
:10354000A1680029EAD0EFE7002EEDD094F85000F2
:10355000012803D1022003B0BDE8F083012084F8E4
:10356000500094F85100002104281CBF052084F865
:1035700051006165A563E687A6872763E686206814
:10358000A686216461640168490603D4016841F09C
:10359000400101606168731EE268B1FA81F1B3FA1B
:1035A00083F3DDF8288049095B09B2F5006F41EA31
:1035B000030165D131B137F8021BC1602763E08E8A
:1035C0000138E086012518F1010032D102E000BF88
:1035D000FEF78AFEE08E18B9E08F002800F0B88070
:1035E0002068816889070CD5E18E51B1012D08D181
:1035F000216B002531F8022BC2602163E18E013975
:10360000E1868168C907E3D0E18F0029E0D0C06876
:10361000A16B012521F8020BA163E08F0138E0873F
:10362000D6E700BFFEF760FEA0EB0900404580F042
:10363000AF80E08E18B9E08F002800F08980206804
:10364000816889070CD5E18E51B1012D08D1216B1C
:10365000002531F8022BC2602163E18E0139E18639
:103660008168C907DED0E18F0029DBD0C068A16B7B
:10367000012521F8020BA163E08F0138E087D1E733
:1036800039B139780173206B01302063E08E013845
:10369000E086012518F1010032D101E0FEF724FE99
:1036A000E08E10B9E08F002852D020688168890729
:1036B0000ED5E18E61B1012D0AD1216B002509786B
:1036C0000173216B206801312163E18E0139E186AC
:1036D0008168C907E2D0E18F0029DFD0C068A16B03
:1036E00001250870A06B0130A063E08F0138E087EE
:1036F000D4E700BFFEF7F8FDA0EB0900404547D234
:10370000E08E08B9E08F18B32068816889070ED56C
:10371000E18E61B1012D0AD1216B00250978017379
:10372000216B206801312163E18E0139E1868168D6
:10373000C907DFD0E18F0029DCD0C068A16B01256B
:103740000870A06B0130A063E08F0138E087D1E7FB
:103750002046022101224346CDF8009001F0B4FB3F
:1037600040B92046802100224346CDF8009001F068
:10377000ABFBB8B1606D40F0200060652020606553
:10378000002084F85000012003B0BDE8F08300BFA2
:10379000012084F85100002084F85000032003B079
:1037A000BDE8F083A06838B9002002902068C168A5
:1037B0000291806802900298012084F85100002054
:1037C00084F85000606D002818BF012003B0BDE8E8
:1037D000F08300007047000070470000002804BF1D
:1037E0000120704710B5044690F83D0028B900202C
:1037F00084F83C00204600F01FF8022084F83D00C9
:103800002068211D01F0FCFB012084F8460084F8AB
:103810003E0084F83F0084F8400084F8410084F8BA
:10382000420084F8430084F8440084F8450084F89A
:103830003D00002010BD00007047000090F83D10D2
:1038400001291CBF01207047022180F83D1000684B
:1038500040F6FF32C168C4F20002904241F001011B
:10386000C1600FDCB0F1804F1ED040F20041C4F2C5
:103870000001884218D040F60001C4F200018842DD
:1038800012D018E040F60041C4F2000188420BD08B
:1038900043F20041C4F20101884205D042F60041E2
:1038A000C4F20101884206D1816801F007010629AE
:1038B00004BF00207047016841F001010160002051
:1038C000704700007047000070B504460068C56886
:1038D0000669B10716D515F0020113D06FF0020189
:1038E0000161012121778069800703D02046FFF71D
:1038F000E9FF05E0204600F08FF8204600F08EF842
:1039000000202077700719D515F0040016D0206824
:103910006FF00401016102212177806910F4407F7A
:1039200004D02046FFF7CEFF06E000BF204600F09F
:1039300073F8204600F072F800202077300717D582
:1039400015F0080014D020686FF00801016104210F
:103950002177C069800703D02046FFF7B3FF05E059
:10396000204600F059F8204600F058F80020207753
:10397000F00619D515F0100016D020686FF0100170
:10398000016108212177C06910F4407F04D02046EE
:10399000FFF798FF06E000BF204600F03DF8204604
:1039A00000F03CF800202077F00718BF15F0010068
:1039B00002D1300609D412E020686FF001010161E4
:1039C000204600F02DF8300609D515F0800006D00D
:1039D00020686FF0800101612046FFF7FBFE700652
:1039E00009D515F0400006D020686FF04001016154
:1039F000204600F01FF8B00658BF70BD15F020003B
:103A000008D021686FF0200220460A61BDE87040AE
:103A1000FFF7E2BE70BD0000704700007047000075
:103A2000006842F60041C4F20101884218BF7047A5
:103A3000FEF79EBF7047000090F84230202B07D160
:103A400000294FF0010318BF002A05D1184670471E
:103A500002231846704700BF81B00123036300238F
:103A60004363816222218285C285436480F84210CB
:103A7000026901681AB1CA6842F48072CA604A6970
:103A800042F001024A61CA6842F02002CA60026B39
:103A9000012A31D1002200920A68009249680091FF
:103AA000009900BF016851E8031F026841F010014E
:103AB00042E80313DBB1016851E8031F026841F0DB
:103AC000100142E8031393B1016851E8031F026833
:103AD00041F0100142E803134BB1016851E8031FA4
:103AE000026841F0100142E80313002BDAD10023F1
:103AF00001B01846704700BF012301B01846704757
:103B0000026843F60003C4F201039A4212D044F261
:103B10000043C4F200039A4218BF704740F280028B
:103B20000C29C2F200020DD008290FD102F11401B4
:103B30000AE000BF40F22031C2F200016422FFF728
:103B40007BBF00BF02F1100101220A6040F2843104
:103B5000C2F200016422FFF76FBF0000704700004F
:103B6000B0B582B001680A68CC684B6902F02F05D5
:103B7000202D04F0200505D125B102B0BDE8B040EC
:103B800001F0B4BA5FEA027C1EBF03F0010E04F438
:103B9000907313EB0E0341D1036BD50618D5012B9F
:103BA00016D114F0100313D0002201920A6801927A
:103BB0004A680192019A496949064BD4818DC28DA8
:103BC000C38D002B18BF914240F0F48102B0B0BD0C
:103BD00013062DD514F080032AD090F84120212A15
:103BE000F4D18268B2F5805F03D10269002A00F047
:103BF0006782026A531C036212784A60C28C013ADF
:103C00001304C284E2D1C86820F08000C860C8688C
:103C100040F04000C86002B0B0BD00BFD30718BF7D
:103C200014F4807340F0D080530700F1D380D8E0C3
:103C30005206CBD514F04002C8D0CA6822F0400228
:103C4000CA60202180F8411002B0BDE8B04000F009
:103C5000E9BB00BFC16B0A68526893B2002BB5D0B4
:103C6000858DAB42B2D2C2858969202900F0A1803E
:103C7000016851E8031F026821F4807142E80313D0
:103C8000DBB1016851E8031F026821F4807142E84A
:103C9000031393B1016851E8031F026821F4807196
:103CA00042E803134BB1016851E8031F026821F495
:103CB000807142E80313002BDAD1016851E8051F37
:103CC000026821F0010142E80513C3B3016851E81D
:103CD000051F026821F0010142E805137BB301686A
:103CE00051E8051F026821F0010142E8051333B3D2
:103CF000016851E8051F026821F0010142E805133F
:103D0000002BDAD11BE000BF016851E8051F0268F3
:103D100021F0400142E80513DBB1016851E8051FBD
:103D2000026821F0400142E8051393B1016851E8AF
:103D3000051F026821F0400142E805134BB10168FC
:103D400051E8051F026821F0400142E80513002BED
:103D5000DAD1202180F8421000210163016851E886
:103D6000031F026821F0100142E80313DBB1016870
:103D700051E8031F026821F0100142E8031393B1D8
:103D8000016851E8031F026821F0100142E80313A3
:103D90004BB1016851E8031F026821F0100142E8AD
:103DA0000313002BDAD1C16B04460846FEF7C4F8B2
:103DB000204602214163818DC28D891A89B202B0E9
:103DC000BDE8B040FFF79CBE436C43F00103436481
:103DD000530706D5BEF1000F03D0436C43F0020336
:103DE0004364930706D5BEF1000F03D0436C43F044
:103DF00004034364BCF1000F06D55EEA050303D05B
:103E0000436C43F008034364436C002B3FF4DEAE85
:103E1000920605D525B1044601F068F921682046CF
:103E20004969426C01F0400102F00802891800F073
:103E3000B98000BF016851E8031F026821F4907146
:103E400042E80313BBB3016851E8031F026821F481
:103E5000907142E8031373B3016851E8031F0268CD
:103E600021F4907142E803132BB3016851E8031F5A
:103E7000026821F4907142E80313002BDAD11AE0B2
:103E8000016851E8051F026821F0010142E80513AD
:103E9000DBB1016851E8051F026821F0010142E829
:103EA000051393B1016851E8051F026821F0010173
:103EB00042E805134BB1016851E8051F026821F083
:103EC000010142E80513002BDAD1016B012924D14D
:103ED000016851E8031F026821F0100142E8031352
:103EE000DBB1016851E8031F026821F0100142E8CC
:103EF000031393B1016851E8031F026821F0100118
:103F000042E803134BB1016851E8031F026821F036
:103F1000100142E80313002BDAD1202180F842106F
:103F20000021016301684969490640F1C3800168C5
:103F300051E8051F026821F0400142E80513DBB19A
:103F4000016851E8051F026821F0400142E80513AD
:103F500093B1016851E8051F026821F0400142E871
:103F600005134BB1016851E8051F026821F04001BB
:103F700042E80513002BDAD1C16B002900F09A80CA
:103F800045F2E102C0F60002044608464A63FDF726
:103F9000F7FF00283FF41AAEE06B416B02B0BDE8BA
:103FA000B04008470446FFF7D9FD0020606402B026
:103FB000B0BD00BF891A00BF026852E8032F036832
:103FC00022F4907243E80325BDB3026852E8032F40
:103FD000036822F4907243E8032575B3026852E83F
:103FE000032F036822F4907243E803252DB302687F
:103FF00052E8032F036822F4907243E80325002D52
:10400000DAD11AE0026852E8052F036822F00102B3
:1040100043E80525DDB1026852E8052F036822F068
:10402000010243E8052595B1026852E8052F0368AF
:1040300022F0010243E805254DB1026852E8052F40
:10404000036822F0010243E80525002DDAD1202281
:1040500080F8422000220263026852E8032F0368BE
:1040600022F0100243E80325DDB1026852E8032F75
:10407000036822F0100243E8032595B1026852E874
:10408000032F036822F0100243E803254DB10268B4
:1040900052E8032F036822F0100243E80325002DA5
:1040A000DAD1022289B2426302B0BDE8B040FFF724
:1040B00027BD00BF02B0BDE8B040FFF74FBD00BF55
:1040C000026A32F8023B6FF35F234B60026295E5B0
:1040D000002804BF0120704710B5044690F8410045
:1040E00028B9002084F84000204600F063F824201E
:1040F00084F841002068D4E90212C36823F4005315
:10410000C360036923F440531A430261D4E90423D2
:104110001143C268194341F20C639A431143C160D1
:104120004169A26921F44071114343F60002C4F2CF
:1041300001029042416103D0FEF700FE02E000BFA1
:10414000FEF710FED4E90023192148439900B0FB83
:10415000F1F048F21F5CC5F2EB1CA0FB0C314FF6EE
:104160009C734909C0F6FF7301FB0300322303EB84
:104170000010A0FB0C03F02000EA531000EB01102C
:10418000C3F34311084490601069202120F490404B
:104190001061506920F02A005061D06840F400504E
:1041A000D0600020606484F8411084F8421060639D
:1041B00010BD0000F0B585B0006844F20041C4F2C3
:1041C000000188424FF00001CDE90311CDE9011152
:1041D00022D043F60001C4F20101884253D141F2DA
:1041E0001800C4F202000168252441F480410160F6
:1041F00001684FF4806701F48041009100990168E3
:1042000041F004010160006800F004000090009893
:104210004FF4007019E000BF41F21800C4F2020030
:104220004168262441F4003141604168082701F4C7
:10423000003100910099016841F0040101600068BB
:1042400000F004000090009804200190022040F645
:10425000000502900320C4F2010501AE0490284637
:104260003146FDF739FF0020CDE9020028463146EE
:104270000197FDF731FF204600210022FEF722FCC6
:104280002046FEF70DFC05B0F0BD000070470000B1
:104290002DE9F04381B0044690F84100202809D16F
:1042A00000294FF0010018BF002A07D101B0BDE876
:1042B000F08300BF022001B0BDE8F08300206064FD
:1042C00021201D460E4684F841001746FEF70CF8E3
:1042D000A784E784A1688146B1F5805F02D1206997
:1042E00000285DD037460020E28C2168002A5DD08E
:1042F0006A1C24D0002D4AD0804600BF0868000602
:1043000008D4FDF7F1FFA0EB0900A8427AD8216894
:10431000C868F3E717B117F8010B04E038F8020B8F
:1043200000276FF35F204860E08C0138E084E08C68
:104330000028E3D13AE000BF0A68120609D40A68EF
:10434000120606D40A6812065CBF0A685FEA0262B7
:10435000F2D51FB117F8012B05E000BF30F8022B92
:1043600000276FF35F224A60E28C013AE284E28C1C
:10437000002AE4D11AE000BF30F8022B00276FF3C7
:104380005F224A60E28C013AE284E28C72B10A68F0
:10439000120635D5002FEFD017F8012BF1E700BF3B
:1043A00000273046E28C2168002AA1D10868400627
:1043B0001ED42DB3681C14D1086840062AD408689E
:1043C000400627D40868400624D4086840064FF009
:1043D0000000F1D50DE000BF2068C168006840060C
:1043E00018D4FDF781FFA0EB0900A842F4D909E039
:1043F0000020202184F8411001B0BDE8F08300BF07
:10440000FDF772FF0320202184F8411001B0BDE8C0
:10441000F08300BF0020202184F8411001B0BDE8E6
:10442000F083000070470000FEE700002DE9F04730
:1044300082B0044600689A460B9D0A9E0368914626
:1044400043F48062026002680F4642F480710160AA
:1044500020464FF0011100223346009500F032F95A
:1044600050B120680068C00544BF4FF4007020645C
:10447000032002B0BDE8F08740F202082068C0F2D5
:10448000010807F0FE0707612046414632462B46E9
:1044900000F0FEF920B1012002B0BDE8F08700BFB6
:1044A0000020019020682A464169019180693146C7
:1044B00001900198204600F09FFAB0B92068BAF147
:1044C000010F09D04FEA19210161204631462A46E1
:1044D00000F092FA48B920685FFA89F1016120463C
:1044E00031462A4600F088FA60B1206C0428D2D107
:1044F0002068016841F400710160012002B0BDE84C
:10450000F08700BF206800220168334641F48071C3
:10451000016020464FF00111009500F0D3F800280B
:104520009FD147F0010C27682046414632462B4672
:10453000C7F810C002B0BDE8F04700F0A9B900000C
:104540002DE9F04383B0044600680F4601680A9DD8
:104550000B9E41F4807199469046016020464FF0D1
:10456000011100222B46009600F0ACF850B12068F3
:104570000068C00544BF4FF400702064032003B0FE
:10458000BDE8F083206807F0FE0101610221C0F25E
:10459000010120462A46334600F07AF920B1012075
:1045A00003B0BDE8F08300BF0020029020683246CF
:1045B000416902918069294602900298204600F0E4
:1045C0001BFA58B1206C0428E9D12068016841F435
:1045D00000710160012003B0BDE8F0832068B9F1EB
:1045E000010F0AD04FEA18210161204629463246C0
:1045F00000F002FA0028E5D120685FFA88F1016135
:10460000002003B0BDE8F08370B50368044653F89A
:10461000140F400711D40E46481C29D086BB00BF9A
:104620001868400527D4FDF75FFE236853F8140F80
:10463000400737D518684007F2D5002070BD00BF8D
:1046400018684007F9D41868400514D41868400762
:10465000F3D4186840050ED418684007EDD41868E4
:10466000400508D4186840074FF0000048BF70BDEF
:1046700018684005E4D56FF480601860042012E0EB
:10468000154603E053F8140F4007D6D418684005C8
:10469000F1D4FDF729FE401B2368B042F2D95869D6
:1046A0004007EFD4202000212022216384F83D2000
:1046B00084F83E10226C10432064012084F83C10E2
:1046C00070BD00002DE9F041054600681E46144605
:1046D00001F47F0201338FB242D0DDF81880B2F5C9
:1046E000803F40F0878040693840C01BB0FA80F0BE
:1046F0004009A04240F0C8804EB924E040693840EB
:10470000C01BB0FA80F04009A04240F0BD80FDF728
:10471000EBFDA0EB08012868B142EFD941693940AF
:10472000C91BB1FA81F14909A142E7D19BE000BF61
:1047300040693840C01BB0FA80F04009A0424FF0F9
:10474000000040F0A280FDF7CFFD286841693940A4
:10475000C91BB1FA81F14909A142E9D183E000BF47
:10476000B2F5803F24D100BF41693940C91BB1FA7D
:1047700081F14909A14240F0878041693940C91B54
:10478000B1FA81F14909A14240F07E804169394086
:10479000C91BB1FA81F14909A14275D1416939407A
:1047A000C91BB1FA81F14909A142DDD06CE000BF1B
:1047B00081693940C91BB1FA81F14909A14263D12C
:1047C00081693940C91BB1FA81F14909A1425BD124
:1047D00081693940C91BB1FA81F14909A14253D11C
:1047E00081693940C91BB1FA81F14909A142DFD081
:1047F0004AE000BF80693840C01BB0FA80F0400931
:10480000A04241D146B923E080693840C01BB0FACC
:1048100080F04009A04237D1FDF766FDA0EB08010A
:104820002868B142F0D981693940C91BB1FA81F1D8
:104830004909A142E8D116E080693840C01BB0FAAE
:1048400080F04009A0424FF0000018BFBDE8F081A1
:10485000FDF74AFD286881693940C91BB1FA81F129
:104860004909A142E8D100202021286385F83D10A4
:1048700085F83E00296C41F02001296485F83C0050
:104880000120BDE8F08100BF0020BDE8F0810000FC
:10489000F0B581B0044600681D4643698FB203EA53
:1048A0000701B94202D1002001B0F0BD41691646AE
:1048B00001323CD0490512D47EB300BFFDF714FD90
:1048C000411B2068B14203D941693940B9422BD11B
:1048D00041693940B942E6D041694905EED50168E0
:1048E00041F4007101606FF4806141610420002196
:1048F0002022216384F83D2084F83E10226C10436E
:10490000206484F83C10012001B0F0BD41693940B9
:10491000B942C8D041694905E1D4FDF7E5FC2068FA
:1049200041693940B942F1D02020E0E741694905A9
:10493000D5D441693940B942B5D041694905CED491
:1049400041693940B942AED041694905C7D441698E
:104950003940B942A7D041694905C0D441693940BD
:10496000B942E3D19FE7000070B5044600681546E0
:1049700050F8143F5A063DD40E4629B926E000BF30
:1049800050F8141F490635D40168C90621D4FDF733
:10499000ABFC411B2068B142F2D941694906EFD412
:1049A00000202021206384F83D1084F83E00206C14
:1049B00040F0200018E000BFFDF796FC206850F89A
:1049C000141F4906ECD50168490613D40168C906CD
:1049D000F2D56FF01001016000202021206384F8DF
:1049E0003D1084F83E00206C2064002084F83C00D8
:1049F000012070BD002070BD70B50368044653F8F7
:104A0000140F000611D40E46481C29D086BB00BFE7
:104A10001868400527D4FDF767FC236853F8140F86
:104A2000000637D518680006F2D5002070BD00BF1B
:104A300018680006F9D41868400514D418680006F0
:104A4000F3D4186840050ED418680006EDD4186831
:104A5000400508D4186800064FF0000048BF70BD3C
:104A600018684005E4D56FF480601860042012E0F7
:104A7000154603E053F8140F0006D6D41868400515
:104A8000F1D4FDF731FC401B2368B042F2D95869DC
:104A90000006EFD4202000212022216384F83D204D
:104AA00084F83E10226C10432064012084F83C10EE
:104AB00070BD00002DE9F04F85B04FF0000B41F2C2
:104AC0001800CDE903BBCDE901BBC4F202000168C7
:104AD00040F6004841F0100101600168C4F201088D
:104AE00001F0100100910099016808F5806441F01F
:104AF000200101600168012201F02001009100996C
:104B00000168042741F00401016001684FF00109C8
:104B100001F0040100910099016841F00801016071
:104B20000068042100F00800009000982046FDF77E
:104B3000D5FBA8F5806630464FF489710022FDF759
:104B4000CDFB404641F202010022FDF7C7FB404683
:104B50004FF480610122FDF7C1FB20464FF48051E4
:104B60000022FDF7BBFB01A880E8800A01AF022507
:104B7000204639460495FDF7AFFA122001A981E8D5
:104B8000010A304639460495FDF7A6FA01A880E8E7
:104B9000200A4FF0030A40463946CDF810A0FDF731
:104BA0009BFA4FF4A05001A981E8010A404639461A
:104BB0000495FDF791FA4FF4807001A981E8010A8C
:104BC00030463946CDF810A0FDF786FA4FF48050F4
:104BD00001A981E8010A20463946CDF810A0FDF769
:104BE0007BFA05B0BDE8F08F80B540F2441045F285
:104BF0000041C2F20000C4F2000148F2A0620023AA
:104C00004FF4804CC0F2010280E80E00C0E9033C82
:104C1000C0E90533C0E90733FDF76CFB002808BF86
:104C200080BDBDE88040FDF781B9000080B540F24D
:104C3000981043F20001C2F20000C4F201014FF4E7
:104C4000827200234FF4007C80E80E000A21C0E944
:104C50000333C0E9053CC361C0E90833C0E90A3148
:104C6000FEF794FA002808BF80BDBDE88040FDF73C
:104C70005DB9000080B540F2F01043F60001C2F2C9
:104C80000000C4F200014FF48272002380E80E009D
:104C900000F114014FF4007C4FF0200E81E8085021
:104CA0000A21C0E90333C0E90833C0E90A31FEF73D
:104CB0006DFA002808BF80BDBDE88040FDF736B919
:104CC00080B540F2902043F60001C2F20000C4F229
:104CD000010100234FF00C0C4FF4E13280E80E008C
:104CE000C0E90333C0E905C3C361FFF7F1F9002848
:104CF00008BF80BDBDE88040FDF718B980B540F21F
:104D0000D82044F20041C2F20000C4F200010023A6
:104D10004FF00C0C4FF4165280E80E00C0E903333C
:104D2000C0E905C3C361FFF7D3F9002808BF80BD00
:104D3000BDE88040FDF7FAB8FEE70000FEE700009E
:104D4000704700002DE9F04786B040F2B804914664
:104D500040F20002C2F200041E46C2F200022346E4
:104D60008A461188556833F8082B07462020DDF85D
:104D70003880CDE9003040F24410C2F20000012337
:104D80000295FDF769FB28B117A006B0BDE8F04712
:104D9000FBF7CABCD4E90201C7E90001D4E9040168
:104DA000CAE90001D4E90610C9E9001094F820000E
:104DB000307094F8211088F800103078D7E900237B
:104DC000DAE90076D9E90054049047F6DB20C0F612
:104DD0000000CDE90076CDE902540591FBF74AFACF
:104DE00006B0BDE8F08700BF526561642066616966
:104DF0006C656400F0B583B0044600200E468DF863
:104E00000A00ADF80800084611461546FDF758FAA5
:104E100001280ED102AF00BF2046394603224FF0D1
:104E2000FF33FEF76FFA30462946FDF749FA0128AD
:104E3000F2D04FF0FF3702A90DF1050220460323FF
:104E40000097FEF75DFB18B10021084603B0F0BDE6
:104E50009DF905009DF80720C1B29DF8063042EA91
:104E60000141B0F1FF3F41EA032107DD40F2E000DC
:104E7000C2F200000160084603B0F0BD05A0FBF7D8
:104E8000F9F940F2E000C2F200000168084603B000
:104E9000F0BD00BF4572726F723A204E6567617453
:104EA0006976652064617461206465746563746506
:104EB00064202872617744617461203D2030782538
:104EC000303658290A0000002DE9F04381B0089CD3
:104ED000984615460E468146FDF706FA201A00EB65
:104EE0000804FDF701FA40F21801C2F20001096856
:104EF000C1F3CB3161430091D9F800108A68324088
:104F0000921BB2FA82F25209AA423DD0074618F12A
:104F1000010031D0FDF7E8F9C01BA04238D200985B
:104F200000990028A1F101010091D9F800108968C9
:104F300008BF044601EA0600801BB0FA80F0400971
:104F4000A842E7D120E000BF88683040801BB0FA5B
:104F500080F04009A84217D088683040801BB0FA22
:104F600080F04009A8420FD088683040801BB0FA1A
:104F700080F04009A84207D088683040801BB0FA12
:104F800080F04009A842DFD1002001B0BDE8F083E5
:104F9000D9E900014268B1F5827F22F0E002426067
:104FA0000BD1D9F80810B1F5004F02D0B1F5806FE0
:104FB00003D1016821F040010160D9F82810B1F552
:104FC000005F07D1016821F400510160016841F4DC
:104FD00000510160012089F85100002089F850003B
:104FE000032001B0BDE8F083704700007047000067
:104FF0007047000040F24820C2F20000FEF764BC97
:1050000010B540F6FF320368C4F2000240F6004ECD
:1050100043F2004C9042C4F2000EC4F2010C21DCB9
:10502000B0F1804F28D040F20044C4F20004A04206
:1050300022D040F60004C4F20004A0421CD09042EA
:1050400020DCB0F1804F27D040F20042C4F20002D1
:10505000904221D040F60002C4F2000290421BD0E0
:105060001EE000BF704507D0604505D042F6004401
:10507000C4F20104A042E2D14C6823F07003234340
:105080009042DEDD704507D0604505D042F6004213
:10509000C4F20102904203D1CA6823F4407313435F
:1050A0004C6923F08002D1F800E08B682243604510
:1050B0000260C362C0F828E005D042F60042C4F2A4
:1050C0000102904201D10969016301214161016935
:1050D000C90708BF10BD016921F00101016110BDC0
:1050E000406A0021C185C184FEF738BD81B090F8C7
:1050F0004210222921D183680246B3F5805F09D18D
:1051000052F8281F52F8183C002B63D003685B68E4
:105110000AE000BF52F8281F13B90369002BF5D02D
:1051200003685B6803F07F030B7011680131116045
:10513000C18D01390A04C18502D001B0704700BF9A
:105140000168CA6822F02002CA60CA6822F480722C
:10515000CA604A6922F001024A61202180F84210A7
:1051600000214163026B012A3CD10163016851E8CF
:10517000031F026821F0100142E80313DBB101684C
:1051800051E8031F026821F0100142E8031393B1B4
:10519000016851E8031F026821F0100142E803137F
:1051A0004BB1016851E8031F026821F0100142E889
:1051B0000313002BDAD101680A68D20606D5002253
:1051C00000920A680092496800910099818D01B0AF
:1051D000FEF796BC026852686FF35F2221F8022B3B
:1051E0008162A5E701B0FFF751B8000040F29020BE
:1051F000C2F20000FEF7B4BC40F2D820C2F20000B8
:10520000FEF7AEBCFEE700002DE9F04F85B00DF1D2
:10521000380E40F2B8099EE83040C2F20009DDF8CD
:1052200044C04F46C9F81C50CA4640F2000547F832
:10523000080F4E464AF8184FCB46C846C2F2000542
:105240000824C9F80C10C9F8143046F8102F0BF8D0
:1052500020EF2988B9F80020686808F821CFCDE947
:10526000007440F24417C2F200070290384601234E
:10527000FDF79AFA04900520FCF71AFFB9F8000030
:105280006A6829880830029282B238460123009663
:105290003E460194FDF788FA03900520FCF708FFCD
:1052A000B9F8000029886F68103082B230460123B7
:1052B000CDE900A40297FDF777FA82460520FCF7B6
:1052C000F7FEB9F800006A6829881830CDF800B0F8
:1052D000029282B23046B346012301260196FDF7C1
:1052E00063FA04460520FCF7E3FEB9F800002988BC
:1052F0006F68193082B258460123CDE900860297C3
:10530000FDF752FA05460520FCF7D2FEDDE9031051
:1053100010A2014309A0002D18BF1046002C18BF91
:105320001046BAF1000F18BF1046002918BF1046EA
:1053300005B0BDE8F04FFBF7F7B900BF4545505247
:105340004F4D20577269746520737563636573737D
:1053500066756C005772697465206661696C656476
:10536000000000007047000043F60001C4F2010194
:105370000A68520609D40A6852065CBF0A685FEAE6
:10538000426202D40A685206F2D5C2B24A6070473D
:105390002DE9F04F83B0884640F2A001C2F200012F
:1053A000D1E9005940F2A801C2F20001D1E900712F
:1053B000DDE90CAB0446384601F060FE07460E46B8
:1053C000284649462246434601F058FE3A463346AF
:1053D00001F042FB024640F2B000C2F2000009C8F0
:1053E0000F4619463B4601F037FB0446DAE9000256
:1053F000DBE9007600230D46C4F2140311460022B7
:10540000CDE9017601F028FB82468B4620462946ED
:105410003A46334602F04CF8002381460F46C4F268
:10542000590350465946002201F016FB04460D462A
:1054300001F08EFA44F20003C4F27F03002227F049
:10544000004801F01BFE02460B464846414602F06A
:105450002BF906465046594622462B4601F0B8FB2A
:1054600004460D46002E1CBF002400252046294678
:105470004A463B4601F002FEDDE9012301F0ECFA69
:105480000D9E2246C6E900010021C3F6F0710020FE
:105490002B4602F00DF802460B465046594601F0E5
:1054A000EDFD0C9AC2E90001D6E9000103B0BDE8A8
:1054B000F08F000094B0FDF769FA00240120CDE9D7
:1054C0000F44CDE90D440A900E904FF4E0104FF4D4
:1054D0008031022513900AA8CDE90B14CDE91151B2
:1054E000FDF754FC20B1EFF3108072B6FEE700BF69
:1054F0000F20CDE905054FF48060CDE9080405A82B
:1055000002210794FDF71AFB20B1EFF3108072B669
:10551000FEE700BF40F6000AC4F2010AFFF7CAFA2C
:10552000FFF7CEFBFFF782FBFFF7A4FBFFF75CFB67
:10553000FFF7E4FB00F0CAFC40F2810740F2A00054
:1055400040F2A80140F2B00240F28003C2F200072C
:10555000C2F20000C2F20001C2F20002C2F2000375
:105560000097FFF7EFFB40F29C09C2F200090AF531
:10557000806848E040F29810C2F200005146402294
:10558000FFF738FC834640F2F010C2F200004146BB
:105590004FF48042FFF72EFC0646584601F0DFFC30
:1055A000074630460D4601F0DAFC02460B46384607
:1055B000294640F2E80740F21005C2F20007C2F2A5
:1055C0000005CDE90057FFF7E3FE01F099FC054621
:1055D00026A0594632462B46FAF74CFE284600F0E4
:1055E0000BFB50464FF48071FCF770FE40460221E1
:1055F000FCF76CFE0AF500604FF48051FCF766FE84
:105600006420FCF755FD40F2203040F28431C2F2B4
:105610000000C2F2000100F031F8D9F800000028C3
:10562000A8D040F28000C2F20000077840F281006A
:10563000C2F20000067840F2A800C2F20000D0E9F1
:10564000002340F2A00040F2B005C2F20000C2F216
:10565000000503C86C682D68CDE90276CDE90054D9
:10566000FFF7D2FD0020C9F8000083E725642C2055
:1056700025642C2025640D0A000000002DE9F04F60
:105680008DB040F280090C460028C2F2000900F0FB
:10569000A2800FF2DC4110220546FBF77AF818B31E
:1056A000D9F81800002800F096800FF2D84128465B
:1056B0001422FBF76EF808B30FF2E04128461122DE
:1056C000FBF767F8D0B30FF2E84128460F22FBF74B
:1056D00060F8002840F07F800020C9F8180047F6E5
:1056E000C820C0F6000006E00120C9F8180047F6FF
:1056F000B520C0F60000FBF717F865E005F11400CF
:1057000006AF0FF2DC410AAA08AB0097FAF748FF90
:10571000032839D1DDE90A0109F1200CDDE908236C
:10572000DDE906768CE88F0047F61D20C0F6000004
:10573000C9F83460FAF7F8FF18E000BF05F111006E
:105740000FF27C4101AA0AABFAF72AFF022837D1EF
:105750009DF804109DF8282047F60D10C0F60000B3
:1057600089F8001089F80120FAF784FD0020C9F8B3
:10577000180047F6C820C0F60000FAF7D5FF012050
:10578000C9F81C0020E000BFDFF8400401AE019022
:105790000FF23840031D00690ECB0DF1080C059087
:1057A00030468CE80E00FAF7D5FF82B240F2902026
:1057B000C2F2000031464FF47A73FEF769FD03E050
:1057C0000FF20840FAF756FD2846FAF7C3FF0146E4
:1057D0002846FBF75BF8D9E90410012818BF012916
:1057E00040F0C281012911D147F66C21C0F60001B9
:1057F00020460A22FAF7CDFF002800F06D81002034
:10580000C9F810000DB0BDE8F08F00BF012840F0CE
:10581000AB81A17947F63B10C0F60000FAF72AFDEC
:1058200099F80010F1A0FAF725FDE08894F800A09F
:1058300090FA90FB47F6611094F80180C0F60000E2
:105840005946FAF717FD20786378C6434AF20100FB
:10585000B5B2CFF6FF7080EA5507F607A278E17877
:1058600008BF6F08C7F34E06FF0718BF4640C6F3D0
:105870004E07F60718BF4740C7F34E06FF0718BF8D
:105880004640C6F34E07F60718BF4740C7F34E061B
:10589000FF0718BF4640C6F34E07F60718BF47403C
:1058A000C7F34E06FF0718BF464073409FB280EA19
:1058B0005706DB0708BF7E08C6F34E03F70718BF7D
:1058C0004340C3F34E07DB0718BF4740C7F34E03FF
:1058D000FF0718BF4340C3F34E07DB0718BF47401D
:1058E000C7F34E03FF0718BF4340C3F34E07DB0760
:1058F00018BF4740C7F34E03FF0718BF43405A4045
:1059000093B280EA5307D20708BF5F08C7F34E027D
:10591000FB0718BF4240C2F34E03D20718BF4340F3
:10592000C3F34E02DB0718BF4240C2F34E03D20757
:1059300018BF4340C3F34E02DB0718BF4240C2F317
:105940004E03D20718BF4340C3F34E02DB0718BF14
:10595000424051408AB280EA5203C90708BF530847
:10596000C3F34E01DA0718BF4140C1F34E02C90725
:1059700018BF4240C2F34E01D20718BF4140C1F3E5
:105980004E02C90718BF4240C2F34E01D20718BFEA
:105990004140C1F34E02C90718BF4240C2F34E0155
:1059A000D207227918BF414051408AB280EA52039F
:1059B000C90708BF5308C3F34E01DA0718BF4140B7
:1059C000C1F34E02C90718BF4240C2F34E01D207CD
:1059D00018BF4140C1F34E02C90718BF4240C2F38D
:1059E0004E01D20718BF4140C1F34E02C90718BF8C
:1059F0004240C2F34E01D207627918BF4140514084
:105A00008AB280EA5203C90708BF5308C3F34E01A4
:105A1000DA0718BF4140C1F34E02C90718BF424020
:105A2000C2F34E01D20718BF4140C1F34E02C9076D
:105A300018BF4240C2F34E01D20718BF4140C1F324
:105A40004E02C90718BF4240C2F34E01D20718BF29
:105A5000414008BA060C47F64B10C0F6000031462C
:105A6000FAF708FCB34567D147F67720C0F6000087
:105A7000FAF75AFE47F67510C0F600005146FAF7DD
:105A8000F9FB47F69D10C0F600004146FAF7F2FB1D
:105A90006088A18846BA47F689104FBAC0F6000060
:105AA0003146FAF7E7FB47F6AE10C0F6000039467C
:105AB000FAF7E0FB494611F8080B002E08BF8245B3
:105AC00040D0022E08BF824544D147F6532009F149
:105AD0000C01C0F6000039E0A07AE17A00EB80000A
